:020000040800F2
:100000007804002001010008BD0900085909000812
:10001000B90900082F0600088B1400080000000032
:10002000000000000000000000000000C10C0008FB
:100030003306000800000000110B0008D50D000871
:100040001B0100081B0100081B0100081B01000820
:100050001B0100081B0100081B0100081B01000810
:100060001B0100081B0100081B0100081B01000800
:100070001B0100081B0100081B0100081B010008F0
:100080001B0100081B0100081B0100081B010008E0
:100090001B0100081B0100081B01000835060008B1
:1000A0001B0100081B0100081B0100081B010008C0
:1000B0001B0100081B0100081B0100081B010008B0
:1000C0001B0100081B0100081B0100081B010008A0
:1000D0001B01000891100008791200081B0100089C
:1000E0001B0100081B0100081B010008DFF80CD0F1
:1000F00000F07CFA00480047851C000878040020C6
:100100000648804706480047FEE7FEE7FEE7FEE7B1
:10011000FEE7FEE7FEE7FEE7FEE7FEE7D90D000893
:10012000ED000008F0B480EA0102D40F4200B2EB07
:10013000410F02D20246084611464A0042D0C30D82
:10014000DDB2C1F3C752AD1A202D35DAC1F3160165
:1001500041F4000204B15242C5F1200602FA06F150
:100160002A411044B3EBD05F23D0C4B1012DA0EBE2
:10017000C35009DCF0BC4FF0004202EAC352DBB2CC
:1001800000F5000000F0A7B9400000F1807000EB1E
:10019000C350A0F1807040EAD170490009E04908DD
:1001A00041EAC071A0EBC35000F50000400800EB2D
:1001B000C350F0BC00F086B96142012202EB41015C
:1001C000001BF6E7F0BC704781F00041AAE780F021
:1001D0000040A7E780EA010210B502F000434000AA
:1001E00022D04A001FD0010E01EB1261C0F356006D
:1001F000C2F3560240F4000042F40002A0FB0220C9
:1002000000047F39140400D0401C50EA124001D48D
:100210004000491EC2B20C0604EBD010401C40083E
:10022000802A02D003E0002010BD20F00100002948
:1002300000DA0020184310BD2DE9FE4F81EA0304C7
:1002400004F0004421F0004100944FF0000B23F033
:10025000004350EA01045ED052EA03045BD0C3F3CA
:100260000A54C1F30A552C44A4F2F3340194A0FBC0
:100270000254C1F3130141F48011C3F3130343F497
:10028000801301FB024400FB034E840A970A44EAF0
:10029000815447EA8357A4FB076802958D0A05FB42
:1002A00007854FEA932C04FB0C542705029D4FEA67
:1002B000065847EA1637B5EB08056EEB070C870EB4
:1002C000920E47EA811742EA8312A7FB0201B6EBBE
:1002D0000B0164EB00042B0D43EA0C335E1844EB76
:1002E0001C50DA465146E7FB0201C5F313044FEAFE
:1002F0000B3343EA14534FEA0432019C43EA0603EA
:10030000A4F10C040294009CCDE900B400F020F9A3
:1003100003B0BDE8F08F00200146F9E72DE9F04D6C
:1003200081EA030404F0004B21F0004514464FF02D
:10033000000A23F0004150EA050220D054EA0102ED
:100340001DD0C5F30A570246C5F31303C1F31300CA
:10035000C1F30A5640F4801543F48013A7EB060856
:10036000101BD64608F2FD3873EB050002D308F1E6
:10037000010801E092185B41B8F1000F03DA002098
:100380000146BDE8F08D00204FF4801106468446FA
:100390000EE0171B73EB050705D3121B63EB050378
:1003A00006434CEA010C49084FEA300092185B41C1
:1003B00050EA0107EDD152EA030012D082EA0400AC
:1003C00083EA0501084305D0101BAB4106D2012288
:1003D000002306E000224FF0004302E06FF001022C
:1003E00053101AEB06004CEB085110EB0A0041EBDE
:1003F0000B01BDE8F04D00F09CB80EB540F2334162
:1004000002910021CDE900110A460B4600F0A0F848
:1004100003B000BD00F0004220F00040C10DC0F369
:10042000160040F400007F2901DA00207047962969
:1004300003DCC1F19601C84001E096398840002AEA
:10044000F4D040427047C1F30A5210B5C1F3130112
:1004500040F2FF3341F480119A4201DA002010BDCE
:1004600040F233439A42A2F2334203DC524200F09C
:1004700019F810BD904010BD30B50B460146002064
:100480002022012409E021FA02F59D4205D303FA56
:1004900002F5491B04FA02F52844151EA2F10102D7
:1004A000F1DC30BD202A04DB203A21FA02F00021E1
:1004B000704721FA02F3D040C2F120029140084374
:1004C000194670470029A8BF7047401C490008BF63
:1004D00020F00100704710B4B0FA80FC00FA0CF074
:1004E00050EA010404BF10BC704749B1CCF12004AC
:1004F00021FA04F411FA0CF118BF01212143084339
:10050000A3EB0C01CB1D4FEA00614FEA102042BF64
:10051000002010BC704700EBC35010440029A4BF5A
:1005200010BC7047401C490008BF20F0010010BCFF
:10053000704710B5141E73F1000408DA401C41F135
:10054000000192185B411A4301D120F0010010BD57
:100550002DE9F04D92469B4611B1B1FA81F202E0CD
:10056000B0FA80F22032904600F052F804460F466E
:1005700040EA0A0041EA0B0153465A46084313D0A9
:10058000114653EA010019D0C8F140025046FFF766
:1005900089FF05460E4650465946424600F038F857
:1005A000084305D0012004E020463946BDE8F08D1F
:1005B0000020054346EAE0762C4337430A9863055A
:1005C000E40AA0EB08000022FD0A44EA47540A307E
:1005D00002D500200146E9E7010510196941DDE96E
:1005E000084500196941BDE8F04DA2E7064C074DEA
:1005F00006E0E06840F0010394E8070098471034F3
:10060000AC42F6D3FFF776FD141F0008341F000834
:10061000202A04DB203A00FA02F1002070479140C2
:10062000C2F1200320FA03F319439040704700BF42
:10063000FEE7704710B5202000F00AF8202000F0F7
:1006400001F810BD01490860704700001404014022
:10065000014600200022074B1B6803EA0102054BFC
:1006600014331B680B4013B10AB1012000E00020D5
:100670007047000000040140002123498279002ACC
:100680003AD00A46126803689A430B461A600A1D5C
:10069000126803689A430B1D1A60027911440A68B4
:1006A00003681A430A60184A0832126803689A43BA
:1006B000154B08331A601A1D126803689A43124BCF
:1006C0000C331A604279102A0ED11A1F126803687F
:1006D0001A430D4B08331A601A1D126803681A4337
:1006E000094B0C331A600DE00749427911440A683E
:1006F00003681A430A6005E0027911440A68036836
:100700009A430A6070470000000401400021016024
:1007100001710C21417100218171704730B50022B7
:100720008B071C0F0F2303FA04F20B4B8C1053F8AA
:1007300024309343084C8D1044F8253023468C1008
:1007400053F824308C07240F00FA04F42343024C9E
:100750008D1044F8253030BD080001402DE9F041EE
:10076000024600250026002000230024002791F8DF
:1007700003C00CF00F0591F803C00CF0100CBCF195
:10078000000F03D091F802C04CEA050591F800C0B3
:10079000BCF1000F31D0146800202BE04FF0010CA9
:1007A0000CFA00F3B1F800C00CEA03069E4220D117
:1007B00083004FF00F0C0CFA03F7BC4305FA03FC5F
:1007C0004CEA040491F803C0BCF1280F06D14FF0A5
:1007D000010C0CFA00FCC2F814C00AE091F803C046
:1007E000BCF1480F05D14FF0010C0CFA00FCC2F827
:1007F00010C0401C0828D1D31460B1F800C0BCF16F
:10080000FF0F34DD546800202EE000F1080C4FF09B
:10081000010808FA0CF3B1F800C00CEA03069E4286
:1008200021D183004FF00F0C0CFA03F7BC4305FAFB
:1008300003FC4CEA040491F803C0BCF1280F05D175
:1008400000F1080C08FA0CF8C2F8148091F803C003
:10085000BCF1480F07D100F1080C4FF0010808FA6D
:100860000CF8C2F81080401C0828CED35460BDE8B4
:10087000F0810246002093680B400BB1012000E09C
:100880000020704741617047016170474FF6FF716A
:100890000180022181700421C17070472DE9F04769
:1008A00000F0C2F9264908602648006809688842B5
:1008B0001FD92448006822490968401A2049086065
:1008C00008460068FFF799FD80461F4A1F4BFFF757
:1008D000B3FC064600221E4BFFF720FD0446FFF73F
:1008E000B2FD17490860084601681AA000F0F6FD3D
:1008F00024E0144800681249096888421ED810484C
:10090000006810490968401A0D49086008460068E7
:10091000FFF773FD06460C4A0C4BFFF78DFC0446AF
:1009200000220B4BFFF7FAFC8046FFF78CFD0449D1
:1009300008600846016807A000F0D0FDBDE8F08718
:10094000280000202C000020B81E85EB51B8024082
:10095000000059402564670000BFFEE70EB5012185
:10096000092000F0E7F802A8FFF790FF48208DF873
:100970000B002020ADF8080002208DF80A0002A923
:100980000C48FFF7EBFE05210120FFF7C7FE684684
:10099000FFF7BCFE2020009001208DF8060000200B
:1009A0008DF804000C208DF805006846FFF764FE02
:1009B0000EBD0000000C014000BFFEE7704708B507
:1009C0004FF4A06000F064F817208DF800000120BB
:1009D0008DF8030000208DF801008DF802006846B4
:1009E00000F01EF825208DF8000001208DF803008E
:1009F00002208DF801008DF80200684600F010F822
:100A000026208DF8000001208DF8030002208DF8CB
:100A100001008DF80200684600F002F808BD0000F1
:100A200070B5002100230F22C47804B3154C24684C
:100A300004F4E064C4F5E064210AC1F10403CA408F
:100A4000447804FA03F184781440214309010E4CE0
:100A50000678A155047804F01F050124AC40057800
:100A60006D11AD0005F1E025C5F8004109E00478FD
:100A700004F01F050124AC40044D0678761145F8BA
:100A8000264070BD0CED00E000E400E080E100E0F5
:100A900002490143024A1160704700000000FA0554
:100AA0000CED00E008B50121182000F043F868467D
:100AB000FFF7ECFE4FF44C50ADF8000003208DF82A
:100AC000020010208DF8030069460F48FFF746FE2C
:100AD00042F20500ADF8000003208DF8020010205E
:100AE0008DF8030069460948FFF738FE4FF40051BE
:100AF0000648FFF7C7FE04210448FFF7C3FE0121A3
:100B00000248FFF7BFFE08BD000C01400010014085
:100B10007047000029B1064AD2690243044BDA61EA
:100B200004E0034AD2698243014BDA617047000056
:100B30000010024029B1064A92690243044B9A61AF
:100B400004E0034A92698243014B9A6170470000B6
:100B50000010024030B500210022002400232D4D5A
:100B60006D6805F00C0121B1042905D0082923D1B5
:100B700005E0294D056022E0274D05601FE0254D69
:100B80006D6805F47012234D6D6805F480340225FC
:100B900005EB92421CB9214D554305600BE01D4DFC
:100BA0006D6805F400351DB11C4D5543056002E02C
:100BB000194D5543056002E0174D056000BF00BFA9
:100BC000144D6D6805F0F0010909154D6B5C056861
:100BD000DD4045600F4D6D6805F4E061090A104D78
:100BE0006B5C4568DD4085600A4D6D6805F46051B9
:100BF000C90A0B4D6B5C4568DD40C560054D6D68ED
:100C000005F44041890B074D6B5CC568B5FBF3F5F6
:100C1000056130BD0010024000127A0000093D005D
:100C2000140000202400002070B5002480212348F7
:100C3000FFF72AFE40212148FFF724FE00BF802154
:100C40001E48FFF716FE0028F9D1012000F072FEC1
:100C500000251FE040211948FFF716FE012000F093
:100C600069FE40211548FFF70DFE80211348FFF76C
:100C700000FE08B9640000BF80211048FFF7F9FDAD
:100C8000012802D1640044F00104012000F052FE6A
:100C9000681CC5B2182DDDDB40210848FFF7F4FDC4
:100CA00084F40004012000F045FE40210348FFF7D2
:100CB000E9FD012000F03EFE204670BD000C014021
:100CC000704710B500F002F810BD00000CB5002010
:100CD000019000903348006840F48030314908604A
:100CE00000BF3048006800F4003000900198401CBC
:100CF0000190009818B90198B0F5A06FF1D129487A
:100D0000006800F4003010B10120009001E00020E4
:100D100000900098012843D12348006840F010005B
:100D2000214908600846006820F003000860084672
:100D3000006840F0020008601A484068194948609D
:100D40000846406848600846406840F48060486053
:100D50000846406820F47C1048600846406840F42B
:100D6000E81048600846006840F08070086000BFE6
:100D70000C48006800F000700028F9D0094840686D
:100D800020F00300074948600846406840F0020030
:100D9000486000BF0348406800F00C000828F9D103
:100DA0000CBD00000010024000200240042808D1C1
:100DB0004FF0E021096941F004014FF0E022116198
:100DC00007E04FF0E021096921F004014FF0E02233
:100DD000116170477047000010B51348006840F07B
:100DE00001001149086008464068104908400E4952
:100DF0004860084600680E4908400B4908600846EC
:100E0000006820F4802008600846406820F4FE0056
:100E100048604FF41F008860FFF753FF4FF00060F9
:100E20000449086010BD0000001002400000FFF8F7
:100E3000FFFFF6FE08ED00E021B1028842F001025A
:100E4000028004E002884FF6FE731A400280704769
:100E500070B5002400220023058C4FF6FE76354045
:100E60000584028C8388048B4FF68F752C40B51E49
:100E70002C400D882C43751E2A400D892A434D882D
:100E80002A43144DA8420BD0134DA84208D0134D4D
:100E9000A84205D0124DA84202D0124DA84213D14B
:100EA0004FF6F7752A404D892A434FF6FB752A40C5
:100EB0008D882A434FF6FF652B404FF6FF552B4098
:100EC0008D892B43CD892B4383800483CD888586F0
:100ED000028470BD002C01400034014000400140FC
:100EE00000440140004801400A460021018B4FF6B2
:100EF000F7731940114301837047000070B5002457
:100F000000220023058C4FF6EF7635400584028CD5
:100F10008388048B48F6FF752C404FF6FF452C4024
:100F20000D884FF6FF7606EA05252C434FF6DF7550
:100F30002A400D8906EA05152A434D8806EA05155B
:100F40002A43154DA84202D0144DA8421DD14FF698
:100F50007F752A404D894FF6FF7606EA05152A432C
:100F60004FF6BF752A408D8806EA05152A434FF6CD
:100F7000FF352B404FF2FF752B408D8906EA850522
:100F80002B43CD8906EA85052B4383800483CD88D6
:100F90000587028470BD0000002C01400034014030
:100FA0000A460021018B4FF2FF7319404FF6FF7381
:100FB00003EA022319430183704700210180418025
:100FC0008180C180018141818181C1817047818699
:100FD0007047018770470000002202881D4B98422D
:100FE0000ED01D4B98420BD0B0F1804F08D01B4B58
:100FF000984205D01A4B984202D01A4B984204D11D
:101000004FF68F731A404B881A43174B984207D0FC
:10101000164B984204D04FF6FF431A40CB881A4330
:1010200002808B8883850B8803850A4B98420BD0FE
:10103000094B984208D00E4B984205D00D4B984270
:1010400002D00D4B984201D10B7A03860123838293
:1010500070470000002C01400034014000040040B3
:1010600000080040000C0040001000400014004048
:101070000040014000440140004801404FF6FF712C
:10108000818000210180C180418001727047000091
:1010900070B540F225516F4800F033F900287DD03B
:1010A00040F225516B4800F004F96A4800F0E4F979
:1010B000C4B26948007870B92C2C0CD10120664963
:1010C0000870664801780078401C644A10706448D3
:1010D00020F8114054E06048007801280ED1122C0D
:1010E0000CD102205C4908705C4801780078401CF3
:1010F0005A4A10705A4820F8114041E0564800788A
:1011000002282ED1554801780078401C534A1070AF
:10111000534820F8114010460078032801DA5B2C70
:101120002ED14F4800794F490870002240F22551D6
:10113000484800F010F900204849087046490870F6
:10114000002605E00020464921F81600701CC6B2B2
:10115000042EF7DB012240F225513E4800F0FBF857
:101160000EE000203C4908703C490870002605E06C
:1011700000203B4921F81600701CC6B2042EF7DB94
:101180003948007880B95D2C0ED1012036490870AD
:10119000364801780078401C344A00E049E010707D
:1011A000334820F8114054E02F48007801280ED130
:1011B000302C0CD102202C4908702C480178007882
:1011C000401C2A4A10702A4820F8114041E0264865
:1011D000007802282ED1254801780078401C234A47
:1011E0001070234820F8114010460078032801DAD7
:1011F0002A2C2ED11E4800791E490870002240F288
:101200002551144800F0A7F8002018490870164925
:101210000870002505E00020154921F81500681C1C
:10122000C5B2042DF7DB012240F22551094800F038
:1012300092F80EE000200C4908700C490870002557
:1012400005E000200A4921F81500681CC5B2042DEC
:10125000F7DB70BD003801403F0000203E00002059
:10126000360000204C0000204900002048000020EB
:10127000400000206C00002010B540F225510748C6
:1012800000F03FF818B1054800F0F6F8C4B240F29B
:101290002551024800F00DF810BD00000044004048
:1012A00001F40072B2F5007F00D100BFCA43028092
:1012B000704710B50022002340F66A14A14200D105
:1012C00000BF0A1201249440A3B2DC43048010BD85
:1012D00021B1828942F40052828104E082894DF674
:1012E000FF731A408281704702460020B1F5007FEB
:1012F00000D100BF13880B400BB1012000E000209B
:10130000704770B50246002400230025002040F6F7
:101310006A16B14200D100BFC1F3421501F01F03AC
:10132000012606FA03F3012D02D19689334006E027
:10133000022D02D1168A334001E0968A33400C1206
:10134000012606FA04F41688344013B10CB10120CA
:1013500000E0002070BDF0B5034600240026002503
:10136000002040F66A17B94200D100BF1846C1F309
:10137000421401F01F06012707FA06F5012C01D1DE
:101380000C3004E0022C01D1103000E014301AB10E
:1013900007682F43076002E00768AF430760F0BDAE
:1013A0002DE9F04786B005460E460024A24600BF50
:1013B000A1460027B08900B100BF2F462C8A4CF609
:1013C000FF700440F08804432C82AC894EF6F31081
:1013D0000440B08831890843718908430443AC81D3
:1013E000AC8A4FF6FF400440B0890443AC8201A8A8
:1013F000FFF7B0FB1F48874202D1DDF810A001E0E3
:10140000DDF80CA0A88900F4004040B10AEBCA0046
:1014100000EB0A1031684900B0FBF1F807E00AEB75
:10142000CA0000EB0A1031688900B0FBF1F86420B3
:10143000B8FBF0F004012009642101FB1089A889A0
:1014400000F4004040B1322000EBC900B0FBF1F0E5
:1014500000F00700044308E0322000EB091064218B
:10146000B0FBF1F000F00F0004432C8106B0BDE8A2
:10147000F08700000038014001468888C0F308006A
:101480007047C1F308028280704700BFFEE700008A
:1014900008B501210820FFF74DFB04208DF803005B
:1014A0008020ADF8000069460A48FFF757F9102080
:1014B0008DF803004020ADF8000003208DF80200F5
:1014C00069460448FFF74AF9FFF7AEFB0249086096
:1014D00008BD0000000C01402C0000200FB4054B9B
:1014E00010B503A9044A029800F018F810BC5DF882
:1014F00014FB0000951A00083000002002E008C824
:10150000121F08C1002AFAD170477047002001E07D
:1015100001C1121F002AFBD1704700002DE9FF4FC7
:1015200089B09B460446002506E025280BD05A4684
:101530000B999047641C6D1C20780028F5D10DB0E4
:101540002846BDE8F08F0027B8460122474900E051
:10155000074314F8013F203B02FA03F00842F7D199
:1015600020782E2819D114F8010F47F004072A28F3
:101570000ED06FF02F022078A0F1300109290CD88D
:1015800008EB880102EB410100EB0108641CF2E763
:101590000A98641C50F8048B0A9020780028CED05A
:1015A000642808D0692806D075281ED05A460B99A1
:1015B00090476D1C58E00A994FF00A0901C90A9139
:1015C000002802DA40422D2102E0390504D52B2102
:1015D0008DF82010012103E0F90704D02021F7E75E
:1015E0008A4608AE0DE00021FAE70A994FF00A0991
:1015F00001C90A91F7E74946FEF73EFF303106F888
:10160000011D0028F7D1ADEB060000F12009780795
:1016100001D44FF00108C84502DDA8EB090000E045
:1016200000208046002706E008A85A46C05D0B99B6
:1016300090476D1C7F1C5745F6DB04E030205A466E
:101640000B9990476D1CB8F10001A8F10108F5DC79
:1016500005E016F8010B5A460B9990476D1CB9F13D
:101660000001A9F10109F4DC641C65E70928010007
:1016700010B501213248FFF705F900203149087003
:10168000314908700420314908702F4800783049EA
:1016900088702E480078C8702A48007808712D4854
:1016A000007800F06DF92C4800F018FC00F0E2F929
:1016B0004FF07C5000F012FC00F0E4F920212748A4
:1016C000FFF7D7F810B901201F49087001201D4904
:1016D00008702048007800F017FB1C4908701A4871
:1016E00000781B49887019480078C8701548007840
:1016F000087100201A49086016E000BF402119480F
:10170000FFF7F2FD0128F9D11148154A1268815CF2
:101710001448FFF7B6FE40211248FFF7C1FD1048FC
:101720000068401C0E4908600D4800680728E4DB8B
:1017300004200849087001210148FFF7A5F810BDF1
:10174000001001404F0000204D0000204E000020FE
:10175000570000204C0000206666A63F000C0140A8
:10176000600000200038014010B504214548FFF713
:1017700089F801214348FFF785F8002042490870A5
:1017800002204249086009E0002041493F4A1268AE
:1017900088543E480068401C3C4908603B4800684B
:1017A0000628F1DB08213B48FFF711FC3A4800F01E
:1017B00095FB20213948FFF75CF810B90120344926
:1017C00008714FF07E5000F089FB0D213148FFF782
:1017D000FEFB314800F082FB20213048FFF749F83A
:1017E00010B901202A4948714FF07E5000F076FB75
:1017F00012212848FFF7EBFB274800F06FFB202160
:101800002648FFF736F810B90120214988704FF0BB
:101810007E5000F063FB17211E48FFF7D8FB1E48DF
:1018200000F05CFB20211D48FFF723F810B90120D0
:101830001749C87000201549086016E000BF402114
:101840001748FFF751FD0128F9D111480F4A1268D6
:10185000815C1348FFF715FE40211148FFF720FD7A
:101860000A480068401C09490860084800680728C1
:10187000E4DB04210348FFF707F801210148FFF7E3
:1018800003F810BD001001406C0000206000002033
:10189000500000200004004000004040000C0140C7
:1018A0000038014010B56FF00400FFF77FFA0A48D6
:1018B00000680A49B0FBF1F0094908700846007851
:1018C00000EB4001C1EBC0104FF6FF7101EAC00010
:1018D0000449088010BD00000000002000127A00BA
:1018E0006E000020700000200146114A12884A4311
:1018F0004FF0E0235A6100229A611A46126942F0C1
:1019000001021A6100BF4FF0E022106900F00102ED
:101910001AB100F48032002AF5D04FF0E0221269AB
:1019200022F001024FF0E0231A6100229A61704711
:10193000700000200146114A12784A434FF0E0231C
:101940005A6100229A611A46126942F001021A6134
:1019500000BF4FF0E022106900F001021AB100F45C
:101960008032002AF5D04FF0E022126922F0010205
:101970004FF0E0231A6100229A6170476E00002048
:1019800070B5044604EB840000F10805A9B20248D2
:10199000FFF71DFB70BD00000004004000B589B0DA
:1019A00001210420FFF7C6F801210220FFF7B2F859
:1019B00008A8FEF76BFF18208DF823008020ADF8F3
:1019C000200003208DF8220008A92848FEF7C6FE53
:1019D00018208DF823004020ADF8200003208DF85A
:1019E000220008A92148FEF7B9FE05A8FFF746FB2B
:1019F0000020ADF81A00ADF81600C720ADF81800A9
:101A000041F61F40ADF8140005A91948FFF7E4FAA4
:101A100001A8FFF7D2FA6020ADF804000120ADF86C
:101A200006000020ADF80C0001A91148FFF766FA86
:101A300008210F48FFF7B4FA01A8FFF7BEFA6020AB
:101A4000ADF804000120ADF806000020ADF80C0050
:101A500001A90748FFF7FCF908210548FFF744FAF8
:101A600001210348FFF7E8F909B000BD0008014073
:101A70000004004010B511210148FFF7AAFA10BD7B
:101A80000004004010B50D210148FFF7A2FA10BD77
:101A90000004004000BF054A128802F04002002AFC
:101AA000F9D0C2B2014B1B1D1A80704700440040A0
:101AB00010B504215048FEF7E5FE00204F4908709C
:101AC0004F49087004204F4908704D4800784E492E
:101AD00088704C480078C870484800780871012028
:101AE0004A49086000204A4908604A480078FFF7E0
:101AF00047FF00F0ABF8484800F0F0F9FFF7BAFFF5
:101B000000F0B2F800F0CEF9FEF7C8FE10E0FEF7E4
:101B1000C5FE3220FFF7E8FE3D480068401C3C4906
:101B2000086008460068192802DB00203749086071
:101B30003A48006844F62061884201D2012000E062
:101B400000203249096808400028E0D100F0B8F9C7
:101B50004FF07C5000F0C2F9FFF794FF00F094F9C9
:101B600000F066F84FF07E5000F0B8F900F07CF815
:101B70002B4800F0B3F900F0A3F920212948FEF723
:101B800078FE10B901201E49087001201B49087019
:101B900000201C4908701A4800781B4988701948B1
:101BA0000078C87015480078087100201E49086048
:101BB00016E000BF40211D48FFF796FB0128F9D130
:101BC0001148194A1268815C1848FFF75AFC4021F5
:101BD0001648FFF765FB14480068401C124908606E
:101BE000114800680728E4DB04200A490870042132
:101BF0000148FEF749FE10BD001001404F000020D3
:101C00004D0000204E0000205700002068000020FA
:101C1000640000204C0000206666663F280000201B
:101C200000004040000C01406000002000380140EE
:101C300010B54FF480510448FEF724FE4FF40051D4
:101C40000148FEF721FE10BD000C014010B54FF415
:101C500080510448FEF718FE4FF400510148FEF78A
:101C600011FE10BD000C014010B54FF48051044826
:101C7000FEF708FE4FF400510148FEF703FE10BDC9
:101C8000000C0140FFF70EFE4FF4165000F076F8FE
:101C90004FF4165000F0B4F8FEF760FEFEF78FFE2A
:101CA000FFF77CFEFFF7F4FBFEF7FCFE00F03AF8CE
:101CB00024E013480078022802D1FFF7F9FE17E06C
:101CC0000F480078012800D100E000200C49097875
:101CD000032901D1012100E00021084308490978C6
:101CE00009B9012100E00021084308B1FFF7C0FC59
:101CF00004480078012801D1FFF736FDD9E700003C
:101D00004C0000206C0000200146042009B902208C
:101D100006E0012901D1032002E0032900D10120BE
:101D20007047000010B54FF400511348FEF7AAFDAC
:101D30000020FFF725FEFFF7A5FE00F0A5F8FFF74E
:101D400077FF4FF0804000F0C9F8FFF78DFF4FF0AC
:101D50007E5000F0C3F800F0B3F84FF4005106488D
:101D6000FEF792FD04210448FEF78EFD0121024892
:101D7000FEF78AFD10BD00000010014010B586B0CE
:101D80000446012144F20400FEF7D4FE4FF4007033
:101D9000ADF8140003208DF8160018208DF81700F8
:101DA00005A91548FEF7DAFC4FF48060ADF8140081
:101DB00004208DF8170005A90F48FEF7CFFC019409
:101DC0000020ADF80800ADF80A00ADF80C00ADF841
:101DD00010000C20ADF80E0001A90848FFF7E0FA4A
:101DE000012240F225510548FFF7B5FA01210348C9
:101DF000FFF76EFA06B010BD000801400038014040
:101E000010B586B0044601210420FEF793FE01219F
:101E10004804FEF77FFE0420ADF8140003208DF87F
:101E2000160018208DF8170005A91548FEF796FC36
:101E30000820ADF8140004208DF8170005A91048FB
:101E4000FEF78CFC01940020ADF80800ADF80A0004
:101E5000ADF80C00ADF810000C20ADF80E0001A993
:101E60000848FFF79DFA012240F225510548FFF787
:101E700072FA01210348FFF72BFA06B010BD0000EB
:101E8000000801400044004010B54FF48071044840
:101E9000FEF7F8FC4FF400710148FEF7F5FC10BDA9
:101EA000000C014010B54FF480710448FEF7ECFCC3
:101EB0004FF400710148FEF7E5FC10BD000C014035
:101EC00010B54FF480710448FEF7DCFC4FF400714C
:101ED0000148FEF7D7FC10BD000C01402DE9F04190
:101EE00004460B492046FEF775F907464FF07E5130
:101EF000FEF718F90646FEF78DFA054602E0642063
:101F0000FFF7F2FC2800A5F10105F8D1BDE8F0814A
:101F100000002041341F0008000000207400000071
:101F2000FC140008A81F000874000020040400002E
:101F30000C15000800A24A04000000000000000088
:101F4000010203040607080900000000010203045F
:101F50000102030406070809020406080000000045
:101F60000000000000000000000000000000000071
:101F70000000000000000000000000000000000061
:101F8000040004005D30000000002A2C1200000054
:101F90005B000000000000000000000001000000E5
:081FA000000000000000000039
:04000005080000ED02
:00000001FF
